:020000020000FC
:1000000030E04AE0232E332E50EB6DEA71E008E039
:100010000EBF0FE50DBF00EF01BB00E002BB0FEF0D
:1000200007BB00E008BB0FEF0ABB00E00BBB02E31D
:100030000093660004E0009367000CE400936800FE
:1000400002E00093710006E20093720002E0009368
:10005000690006E200937000F2E0E6E2D2E0C6E258
:10006000112311F01A9513C0222319F01A952A951D
:100070000EC000E002BB809B0E946B00819B0E942F
:100080007C00829B0E948D00839B0E949E00EE2339
:1000900011F0EA9512C0FF2319F0EA95FA950DC008
:1000A000CC2311F0CA9513C0DD2319F0CA95DA9557
:1000B0000EC0F0916900E09170000FEF0BBBD09182
:1000C0007100C0917200000000000000C9CF00E084
:1000D0000BBB0000C5CF00EE02BB809B40C000ED13
:1000E00002BB809B41C000EB02BB809B42C000E78B
:1000F00002BB809B43C0B4CF00EE02BB819B43C0D8
:1001000000ED02BB819B44C000EB02BB819B45C05C
:1001100000E702BB819B46C0A3CF00EE02BB829BDF
:1001200046C000ED02BB829B47C000EB02BB829B36
:1001300048C000E702BB829B49C092CF00EE02BBE1
:10014000839B49C000ED02BB839B4AC000EB02BB0E
:10015000839B4BC000E702BB839B4CC081CF07E071
:1001600008BB0E94FF00089508E008BB0E94FF0042
:10017000089509E008BB0E94FF0008950FEF08BB37
:100180000E94FF00089504E008BB0E94FF0008954C
:1001900005E008BB0E94FF00089506E008BB0E942E
:1001A000FF0008950EEF08BB0E94FF00089501E0D4
:1001B00008BB0E94FF00089502E008BB0E94FF00F8
:1001C000089503E008BB0E94FF0008950DEF08BBEF
:1001D0000E94FF0008950FEE08BB0E94FF000895E3
:1001E00000E008BB0E94FF0008950FED08BB0E94CD
:1001F000FF0008950CEF08BB0E94FF0008951FEF59
:100200002FEF0F3D49F00C3FF1F0249E8894000E33
:10021000131E202C312C089530926400209265002A
:10022000422C532C632E832F932F50EB6DEA71E0F9
:100230000E9455019093670080936800232E332E0F
:10024000832F932F02C02092660050916800609126
:100250006700732F40906600549D502D012D649DC2
:10026000000E131E602D712D832F932F04E6402E58
:10027000532E632E0E945501909369008093700065
:10028000F92FE82FF0936900E0937000D091670098
:10029000C0916800CE1BDF0BD0937100C093720039
:1002A000232E332E832F932F0895761584F00196F5
:1002B000541965097609F9CF65154CF00196541962
:1002C0006509FACF54151CF001965419FBCF089517
:00000001FF
